{
  "contractName": "CrowdclickEscrow",
  "abi": [
    {
      "constant": false,
      "inputs": [],
      "name": "renounceOwnership",
      "outputs": [],
      "payable": false,
      "stateMutability": "nonpayable",
      "type": "function"
    },
    {
      "constant": true,
      "inputs": [],
      "name": "owner",
      "outputs": [
        {
          "name": "",
          "type": "address"
        }
      ],
      "payable": false,
      "stateMutability": "view",
      "type": "function"
    },
    {
      "constant": true,
      "inputs": [],
      "name": "isOwner",
      "outputs": [
        {
          "name": "",
          "type": "bool"
        }
      ],
      "payable": false,
      "stateMutability": "view",
      "type": "function"
    },
    {
      "constant": false,
      "inputs": [
        {
          "name": "newOwner",
          "type": "address"
        }
      ],
      "name": "transferOwnership",
      "outputs": [],
      "payable": false,
      "stateMutability": "nonpayable",
      "type": "function"
    },
    {
      "constant": true,
      "inputs": [
        {
          "name": "",
          "type": "address"
        },
        {
          "name": "",
          "type": "uint256"
        }
      ],
      "name": "taskCollection",
      "outputs": [
        {
          "name": "taskBudget",
          "type": "uint256"
        },
        {
          "name": "taskReward",
          "type": "uint256"
        },
        {
          "name": "isActive",
          "type": "bool"
        },
        {
          "name": "url",
          "type": "string"
        },
        {
          "name": "currentBudget",
          "type": "uint256"
        }
      ],
      "payable": false,
      "stateMutability": "view",
      "type": "function"
    },
    {
      "anonymous": false,
      "inputs": [
        {
          "indexed": true,
          "name": "previousOwner",
          "type": "address"
        },
        {
          "indexed": true,
          "name": "newOwner",
          "type": "address"
        }
      ],
      "name": "OwnershipTransferred",
      "type": "event"
    },
    {
      "constant": false,
      "inputs": [
        {
          "name": "_taskBudget",
          "type": "uint256"
        },
        {
          "name": "_taskReward",
          "type": "uint256"
        },
        {
          "name": "_url",
          "type": "string"
        }
      ],
      "name": "openTask",
      "outputs": [
        {
          "name": "",
          "type": "uint256"
        }
      ],
      "payable": true,
      "stateMutability": "payable",
      "type": "function"
    },
    {
      "constant": true,
      "inputs": [
        {
          "name": "_account_address",
          "type": "address"
        },
        {
          "name": "index",
          "type": "uint256"
        }
      ],
      "name": "lookUpTask",
      "outputs": [
        {
          "name": "",
          "type": "uint256"
        },
        {
          "name": "",
          "type": "uint256"
        }
      ],
      "payable": false,
      "stateMutability": "view",
      "type": "function"
    },
    {
      "constant": true,
      "inputs": [
        {
          "name": "_address",
          "type": "address"
        }
      ],
      "name": "balancesOfPublisher",
      "outputs": [
        {
          "name": "",
          "type": "uint256"
        }
      ],
      "payable": false,
      "stateMutability": "view",
      "type": "function"
    },
    {
      "constant": true,
      "inputs": [
        {
          "name": "_address",
          "type": "address"
        }
      ],
      "name": "balancesOfUser",
      "outputs": [
        {
          "name": "",
          "type": "uint256"
        }
      ],
      "payable": false,
      "stateMutability": "view",
      "type": "function"
    },
    {
      "constant": false,
      "inputs": [
        {
          "name": "withdrawAmount",
          "type": "uint256"
        }
      ],
      "name": "withdrawUserBalance",
      "outputs": [
        {
          "name": "updatedBalance",
          "type": "uint256"
        }
      ],
      "payable": true,
      "stateMutability": "payable",
      "type": "function"
    },
    {
      "constant": false,
      "inputs": [
        {
          "name": "_url",
          "type": "string"
        }
      ],
      "name": "withdrawFromCampaign",
      "outputs": [
        {
          "name": "",
          "type": "uint256"
        }
      ],
      "payable": true,
      "stateMutability": "payable",
      "type": "function"
    },
    {
      "constant": false,
      "inputs": [
        {
          "name": "_userAddr",
          "type": "address"
        },
        {
          "name": "_publisherAddr",
          "type": "address"
        },
        {
          "name": "_url",
          "type": "string"
        }
      ],
      "name": "forwardRewards",
      "outputs": [
        {
          "name": "",
          "type": "uint256"
        },
        {
          "name": "",
          "type": "uint256"
        }
      ],
      "payable": true,
      "stateMutability": "payable",
      "type": "function"
    }
  ],
  "bytecode": "0x6080604052666a94d74f43000060015560006100286100cb640100000000026401000000009004565b9050806000806101000a81548173ffffffffffffffffffffffffffffffffffffffff021916908373ffffffffffffffffffffffffffffffffffffffff1602179055508073ffffffffffffffffffffffffffffffffffffffff16600073ffffffffffffffffffffffffffffffffffffffff167f8be0079c531659141344cd1fd0a4f28419497f9722a3daafe3b4186f6b6457e060405160405180910390a3506100d3565b600033905090565b612126806100e26000396000f3fe6080604052600436106100ba576000357c0100000000000000000000000000000000000000000000000000000000900463ffffffff1680630c4f518e146100bf5780631252e41f146101d55780633ade39391461023a5780635b35fb1a1461029f578063715018a6146103825780638da5cb5b146103995780638f32d59b146103f0578063abc3cf051461041f578063e046b8da14610461578063eb994b49146104d7578063f2fde38b146105a6578063ff24801f146105f7575b600080fd5b6101b8600480360360608110156100d557600080fd5b81019080803573ffffffffffffffffffffffffffffffffffffffff169060200190929190803573ffffffffffffffffffffffffffffffffffffffff1690602001909291908035906020019064010000000081111561013257600080fd5b82018360208201111561014457600080fd5b8035906020019184600183028401116401000000008311171561016657600080fd5b91908080601f016020809104026020016040519081016040528093929190818152602001838380828437600081840152601f19601f8201169050808301925050505050505091929192905050506106eb565b604051808381526020018281526020019250505060405180910390f35b3480156101e157600080fd5b50610224600480360360208110156101f857600080fd5b81019080803573ffffffffffffffffffffffffffffffffffffffff169060200190929190505050610e80565b6040518082815260200191505060405180910390f35b34801561024657600080fd5b506102896004803603602081101561025d57600080fd5b81019080803573ffffffffffffffffffffffffffffffffffffffff169060200190929190505050610ec9565b6040518082815260200191505060405180910390f35b61036c600480360360608110156102b557600080fd5b810190808035906020019092919080359060200190929190803590602001906401000000008111156102e657600080fd5b8201836020820111156102f857600080fd5b8035906020019184600183028401116401000000008311171561031a57600080fd5b91908080601f016020809104026020016040519081016040528093929190818152602001838380828437600081840152601f19601f820116905080830192505050505050509192919290505050610f12565b6040518082815260200191505060405180910390f35b34801561038e57600080fd5b50610397611195565b005b3480156103a557600080fd5b506103ae6112d0565b604051808273ffffffffffffffffffffffffffffffffffffffff1673ffffffffffffffffffffffffffffffffffffffff16815260200191505060405180910390f35b3480156103fc57600080fd5b506104056112f9565b604051808215151515815260200191505060405180910390f35b61044b6004803603602081101561043557600080fd5b8101908080359060200190929190505050611357565b6040518082815260200191505060405180910390f35b34801561046d57600080fd5b506104ba6004803603604081101561048457600080fd5b81019080803573ffffffffffffffffffffffffffffffffffffffff169060200190929190803590602001909291905050506114d8565b604051808381526020018281526020019250505060405180910390f35b610590600480360360208110156104ed57600080fd5b810190808035906020019064010000000081111561050a57600080fd5b82018360208201111561051c57600080fd5b8035906020019184600183028401116401000000008311171561053e57600080fd5b91908080601f016020809104026020016040519081016040528093929190818152602001838380828437600081840152601f19601f82011690508083019250505050505050919291929050505061160f565b6040518082815260200191505060405180910390f35b3480156105b257600080fd5b506105f5600480360360208110156105c957600080fd5b81019080803573ffffffffffffffffffffffffffffffffffffffff1690602001909291905050506119ea565b005b34801561060357600080fd5b506106506004803603604081101561061a57600080fd5b81019080803573ffffffffffffffffffffffffffffffffffffffff16906020019092919080359060200190929190505050611a72565b604051808681526020018581526020018415151515815260200180602001838152602001828103825284818151815260200191508051906020019080838360005b838110156106ac578082015181840152602081019050610691565b50505050905090810190601f1680156106d95780820380516001836020036101000a031916815260200191505b50965050505050505060405180910390f35b6000806106f66112f9565b151561076a576040517f08c379a00000000000000000000000000000000000000000000000000000000081526004018080602001828103825260208152602001807f4f776e61626c653a2063616c6c6572206973206e6f7420746865206f776e657281525060200191505060405180910390fd5b60006107768585611b69565b509050600260008673ffffffffffffffffffffffffffffffffffffffff1673ffffffffffffffffffffffffffffffffffffffff168152602001908152602001600020818154811015156107c557fe5b906000526020600020906005020160020160009054906101000a900460ff16801561088b5750600260008673ffffffffffffffffffffffffffffffffffffffff1673ffffffffffffffffffffffffffffffffffffffff1681526020019081526020016000208181548110151561083757fe5b906000526020600020906005020160010154600460008773ffffffffffffffffffffffffffffffffffffffff1673ffffffffffffffffffffffffffffffffffffffff16815260200190815260200160002054115b80156109515750600260008673ffffffffffffffffffffffffffffffffffffffff1673ffffffffffffffffffffffffffffffffffffffff168152602001908152602001600020818154811015156108de57fe5b906000526020600020906005020160040154600260008773ffffffffffffffffffffffffffffffffffffffff1673ffffffffffffffffffffffffffffffffffffffff1681526020019081526020016000208281548110151561093c57fe5b90600052602060002090600502016001015411155b15156109c5576040517f08c379a00000000000000000000000000000000000000000000000000000000081526004018080602001828103825260128152602001807f6e6f7420656e6f7567682062616c616e6365000000000000000000000000000081525060200191505060405180910390fd5b610a92600260008773ffffffffffffffffffffffffffffffffffffffff1673ffffffffffffffffffffffffffffffffffffffff16815260200190815260200160002082815481101515610a1457fe5b906000526020600020906005020160010154600260008873ffffffffffffffffffffffffffffffffffffffff1673ffffffffffffffffffffffffffffffffffffffff16815260200190815260200160002083815481101515610a7257fe5b906000526020600020906005020160040154611cfc90919063ffffffff16565b600260008773ffffffffffffffffffffffffffffffffffffffff1673ffffffffffffffffffffffffffffffffffffffff16815260200190815260200160002082815481101515610ade57fe5b906000526020600020906005020160040181905550610ba2600260008773ffffffffffffffffffffffffffffffffffffffff1673ffffffffffffffffffffffffffffffffffffffff16815260200190815260200160002082815481101515610b4257fe5b906000526020600020906005020160010154600460008873ffffffffffffffffffffffffffffffffffffffff1673ffffffffffffffffffffffffffffffffffffffff16815260200190815260200160002054611cfc90919063ffffffff16565b600460008773ffffffffffffffffffffffffffffffffffffffff1673ffffffffffffffffffffffffffffffffffffffff16815260200190815260200160002081905550610c94600260008773ffffffffffffffffffffffffffffffffffffffff1673ffffffffffffffffffffffffffffffffffffffff16815260200190815260200160002082815481101515610c3457fe5b906000526020600020906005020160010154600560008973ffffffffffffffffffffffffffffffffffffffff1673ffffffffffffffffffffffffffffffffffffffff16815260200190815260200160002054611d4690919063ffffffff16565b600560008873ffffffffffffffffffffffffffffffffffffffff1673ffffffffffffffffffffffffffffffffffffffff16815260200190815260200160002081905550600260008673ffffffffffffffffffffffffffffffffffffffff1673ffffffffffffffffffffffffffffffffffffffff16815260200190815260200160002081815481101515610d2357fe5b906000526020600020906005020160010154600460008773ffffffffffffffffffffffffffffffffffffffff1673ffffffffffffffffffffffffffffffffffffffff16815260200190815260200160002054111515610df3576000600260008773ffffffffffffffffffffffffffffffffffffffff1673ffffffffffffffffffffffffffffffffffffffff16815260200190815260200160002082815481101515610dca57fe5b906000526020600020906005020160020160006101000a81548160ff0219169083151502179055505b600460008673ffffffffffffffffffffffffffffffffffffffff1673ffffffffffffffffffffffffffffffffffffffff16815260200190815260200160002054600560008873ffffffffffffffffffffffffffffffffffffffff1673ffffffffffffffffffffffffffffffffffffffff168152602001908152602001600020549250925050935093915050565b6000600560008373ffffffffffffffffffffffffffffffffffffffff1673ffffffffffffffffffffffffffffffffffffffff168152602001908152602001600020549050919050565b6000600460008373ffffffffffffffffffffffffffffffffffffffff1673ffffffffffffffffffffffffffffffffffffffff168152602001908152602001600020549050919050565b60008334148015610fa25750600360003373ffffffffffffffffffffffffffffffffffffffff1673ffffffffffffffffffffffffffffffffffffffff1681526020019081526020016000205434600360003373ffffffffffffffffffffffffffffffffffffffff1673ffffffffffffffffffffffffffffffffffffffff1681526020019081526020016000205401115b1515610fad57600080fd5b610fb5612023565b8481600001818152505083816020018181525050848160800181815250506001816040019015159081151581525050828160600181905250600260003373ffffffffffffffffffffffffffffffffffffffff1673ffffffffffffffffffffffffffffffffffffffff1681526020019081526020016000208190806001815401808255809150509060018203906000526020600020906005020160009091929091909150600082015181600001556020820151816001015560408201518160020160006101000a81548160ff02191690831515021790555060608201518160030190805190602001906110a8929190612055565b506080820151816004015550505061110834600460003373ffffffffffffffffffffffffffffffffffffffff1673ffffffffffffffffffffffffffffffffffffffff16815260200190815260200160002054611d4690919063ffffffff16565b600460003373ffffffffffffffffffffffffffffffffffffffff1673ffffffffffffffffffffffffffffffffffffffff16815260200190815260200160002081905550600460003373ffffffffffffffffffffffffffffffffffffffff1673ffffffffffffffffffffffffffffffffffffffff168152602001908152602001600020549150509392505050565b61119d6112f9565b1515611211576040517f08c379a00000000000000000000000000000000000000000000000000000000081526004018080602001828103825260208152602001807f4f776e61626c653a2063616c6c6572206973206e6f7420746865206f776e657281525060200191505060405180910390fd5b600073ffffffffffffffffffffffffffffffffffffffff166000809054906101000a900473ffffffffffffffffffffffffffffffffffffffff1673ffffffffffffffffffffffffffffffffffffffff167f8be0079c531659141344cd1fd0a4f28419497f9722a3daafe3b4186f6b6457e060405160405180910390a360008060006101000a81548173ffffffffffffffffffffffffffffffffffffffff021916908373ffffffffffffffffffffffffffffffffffffffff160217905550565b60008060009054906101000a900473ffffffffffffffffffffffffffffffffffffffff16905090565b60008060009054906101000a900473ffffffffffffffffffffffffffffffffffffffff1673ffffffffffffffffffffffffffffffffffffffff1661133b611dd0565b73ffffffffffffffffffffffffffffffffffffffff1614905090565b600060015482101580156113aa5750600560003373ffffffffffffffffffffffffffffffffffffffff1673ffffffffffffffffffffffffffffffffffffffff168152602001908152602001600020548211155b15156113b557600080fd5b61140782600560003373ffffffffffffffffffffffffffffffffffffffff1673ffffffffffffffffffffffffffffffffffffffff16815260200190815260200160002054611cfc90919063ffffffff16565b600560003373ffffffffffffffffffffffffffffffffffffffff1673ffffffffffffffffffffffffffffffffffffffff168152602001908152602001600020819055503373ffffffffffffffffffffffffffffffffffffffff166108fc839081150290604051600060405180830381858888f19350505050158015611490573d6000803e3d6000fd5b50600560003373ffffffffffffffffffffffffffffffffffffffff1673ffffffffffffffffffffffffffffffffffffffff168152602001908152602001600020549050919050565b6000806000600260008673ffffffffffffffffffffffffffffffffffffffff1673ffffffffffffffffffffffffffffffffffffffff1681526020019081526020016000208481548110151561152957fe5b9060005260206000209060050201600001541415151561154857600080fd5b600260008573ffffffffffffffffffffffffffffffffffffffff1673ffffffffffffffffffffffffffffffffffffffff1681526020019081526020016000208381548110151561159457fe5b906000526020600020906005020160000154600260008673ffffffffffffffffffffffffffffffffffffffff1673ffffffffffffffffffffffffffffffffffffffff168152602001908152602001600020848154811015156115f257fe5b906000526020600020906005020160010154915091509250929050565b60008061161c3384611b69565b5090506000600260003373ffffffffffffffffffffffffffffffffffffffff1673ffffffffffffffffffffffffffffffffffffffff1681526020019081526020016000208281548110151561166d57fe5b9060005260206000209060050201600401541180156117285750600260003373ffffffffffffffffffffffffffffffffffffffff1673ffffffffffffffffffffffffffffffffffffffff168152602001908152602001600020818154811015156116d357fe5b906000526020600020906005020160040154600460003373ffffffffffffffffffffffffffffffffffffffff1673ffffffffffffffffffffffffffffffffffffffff1681526020019081526020016000205410155b151561173357600080fd5b6000600260003373ffffffffffffffffffffffffffffffffffffffff1673ffffffffffffffffffffffffffffffffffffffff1681526020019081526020016000208281548110151561178157fe5b906000526020600020906005020160020160006101000a81548160ff021916908315150217905550611858600260003373ffffffffffffffffffffffffffffffffffffffff1673ffffffffffffffffffffffffffffffffffffffff168152602001908152602001600020828154811015156117f857fe5b906000526020600020906005020160040154600460003373ffffffffffffffffffffffffffffffffffffffff1673ffffffffffffffffffffffffffffffffffffffff16815260200190815260200160002054611cfc90919063ffffffff16565b600460003373ffffffffffffffffffffffffffffffffffffffff1673ffffffffffffffffffffffffffffffffffffffff168152602001908152602001600020819055503373ffffffffffffffffffffffffffffffffffffffff166108fc600260003373ffffffffffffffffffffffffffffffffffffffff1673ffffffffffffffffffffffffffffffffffffffff1681526020019081526020016000208381548110151561190157fe5b9060005260206000209060050201600401549081150290604051600060405180830381858888f1935050505015801561193e573d6000803e3d6000fd5b506000600260003373ffffffffffffffffffffffffffffffffffffffff1673ffffffffffffffffffffffffffffffffffffffff1681526020019081526020016000208281548110151561198d57fe5b906000526020600020906005020160040181905550600460003373ffffffffffffffffffffffffffffffffffffffff1673ffffffffffffffffffffffffffffffffffffffff16815260200190815260200160002054915050919050565b6119f26112f9565b1515611a66576040517f08c379a00000000000000000000000000000000000000000000000000000000081526004018080602001828103825260208152602001807f4f776e61626c653a2063616c6c6572206973206e6f7420746865206f776e657281525060200191505060405180910390fd5b611a6f81611dd8565b50565b600260205281600052604060002081815481101515611a8d57fe5b9060005260206000209060050201600091509150508060000154908060010154908060020160009054906101000a900460ff1690806003018054600181600116156101000203166002900480601f016020809104026020016040519081016040528092919081815260200182805460018160011615610100020316600290048015611b595780601f10611b2e57610100808354040283529160200191611b59565b820191906000526020600020905b815481529060010190602001808311611b3c57829003601f168201915b5050505050908060040154905085565b6000806000809050600080905060008090505b600260008873ffffffffffffffffffffffffffffffffffffffff1673ffffffffffffffffffffffffffffffffffffffff16815260200190815260200160002080549050811015611cec576060600260008973ffffffffffffffffffffffffffffffffffffffff1673ffffffffffffffffffffffffffffffffffffffff16815260200190815260200160002082815481101515611c1457fe5b90600052602060002090600502016003018054600181600116156101000203166002900480601f016020809104026020016040519081016040528092919081815260200182805460018160011615610100020316600290048015611cb95780601f10611c8e57610100808354040283529160200191611cb9565b820191906000526020600020905b815481529060010190602001808311611c9c57829003601f168201915b50505050509050868051906020012081805190602001201415611cde57819350600192505b508080600101915050611b7c565b5081819350935050509250929050565b6000611d3e83836040805190810160405280601e81526020017f536166654d6174683a207375627472616374696f6e206f766572666c6f770000815250611f61565b905092915050565b6000808284019050838110151515611dc6576040517f08c379a000000000000000000000000000000000000000000000000000000000815260040180806020018281038252601b8152602001807f536166654d6174683a206164646974696f6e206f766572666c6f77000000000081525060200191505060405180910390fd5b8091505092915050565b600033905090565b600073ffffffffffffffffffffffffffffffffffffffff168173ffffffffffffffffffffffffffffffffffffffff1614151515611ea3576040517f08c379a00000000000000000000000000000000000000000000000000000000081526004018080602001828103825260268152602001807f4f776e61626c653a206e6577206f776e657220697320746865207a65726f206181526020017f646472657373000000000000000000000000000000000000000000000000000081525060400191505060405180910390fd5b8073ffffffffffffffffffffffffffffffffffffffff166000809054906101000a900473ffffffffffffffffffffffffffffffffffffffff1673ffffffffffffffffffffffffffffffffffffffff167f8be0079c531659141344cd1fd0a4f28419497f9722a3daafe3b4186f6b6457e060405160405180910390a3806000806101000a81548173ffffffffffffffffffffffffffffffffffffffff021916908373ffffffffffffffffffffffffffffffffffffffff16021790555050565b60008383111582901515612010576040517f08c379a00000000000000000000000000000000000000000000000000000000081526004018080602001828103825283818151815260200191508051906020019080838360005b83811015611fd5578082015181840152602081019050611fba565b50505050905090810190601f1680156120025780820380516001836020036101000a031916815260200191505b509250505060405180910390fd5b5060008385039050809150509392505050565b60a060405190810160405280600081526020016000815260200160001515815260200160608152602001600081525090565b828054600181600116156101000203166002900490600052602060002090601f016020900481019282601f1061209657805160ff19168380011785556120c4565b828001600101855582156120c4579182015b828111156120c35782518255916020019190600101906120a8565b5b5090506120d191906120d5565b5090565b6120f791905b808211156120f35760008160009055506001016120db565b5090565b9056fea165627a7a72305820a6394f7d3b69638bfb21e8b64da9643bcebd56652d90d2d39f0c3b22b783507e0029",
  "source": "pragma solidity ^0.5.0;\nimport \"../node_modules/@openzeppelin/contracts/ownership/Ownable.sol\";\nimport \"../node_modules/@openzeppelin/contracts/math/SafeMath.sol\";\n\ncontract CrowdclickEscrow is Ownable {\n    \n    using SafeMath for uint256;\n    \n    struct Task {\n        uint256 taskBudget;\n        uint256 taskReward;\n        bool isActive;\n        string url;\n        uint256 currentBudget;\n        \n    }\n    \n    uint256 HARDCODED_MINIMUM_WITHDRAWAL = 30000000000000000 wei; // = 0.03 ethereum\n    mapping(address => Task[]) public taskCollection;\n    mapping(address => uint256) private _account_balances;\n    mapping(address => uint256) private _campaign_owner_account_balance;\n    mapping(address => uint256) private _user_account_balance;\n    \n\n     function openTask(uint256 _taskBudget, uint256 _taskReward, string memory _url) public payable returns(uint256) {\n        require(msg.value == _taskBudget && (_account_balances[msg.sender] + msg.value) > _account_balances[msg.sender] );\n        \n        Task memory task_instance;\n        task_instance.taskBudget = _taskBudget;\n        task_instance.taskReward = _taskReward;\n        task_instance.currentBudget = _taskBudget;\n        task_instance.isActive = true;\n        task_instance.url = _url;\n        taskCollection[msg.sender].push(task_instance);\n        \n        _campaign_owner_account_balance[msg.sender] = _campaign_owner_account_balance[msg.sender].add(msg.value);\n        return _campaign_owner_account_balance[msg.sender];\n    }\n    \n\n    function lookUpTask(address _account_address, uint256 index) public view returns(uint256, uint256)  {\n        require(taskCollection[_account_address][index].taskBudget != 0);\n        return (taskCollection[_account_address][index].taskBudget, taskCollection[_account_address][index].taskReward);\n    }\n\n    function balancesOfPublisher(address _address) public view returns (uint256) {\n        return _campaign_owner_account_balance[_address];\n    }\n    \n    function balancesOfUser(address _address) public view returns(uint256) {\n        return _user_account_balance[_address];\n    }\n    \n    \n    function withdrawUserBalance(uint256 withdrawAmount) payable public returns (uint256 updatedBalance) {\n        require(withdrawAmount >= HARDCODED_MINIMUM_WITHDRAWAL && withdrawAmount <= _user_account_balance[msg.sender]);\n        _user_account_balance[msg.sender] = _user_account_balance[msg.sender].sub(withdrawAmount);\n        msg.sender.transfer(withdrawAmount);\n        return _user_account_balance[msg.sender];\n    }\n    \n    function withdrawFromCampaign(string memory _url) payable public returns(uint256) {\n        (uint256 campaign_indx, ) = helper_selectTask(msg.sender, _url);\n        require(taskCollection[msg.sender][campaign_indx].currentBudget > 0 && _campaign_owner_account_balance[msg.sender] >= taskCollection[msg.sender][campaign_indx].currentBudget); \n        taskCollection[msg.sender][campaign_indx].isActive = false; //move it inside helper_selecttask\n        _campaign_owner_account_balance[msg.sender] = _campaign_owner_account_balance[msg.sender].sub(taskCollection[msg.sender][campaign_indx].currentBudget);\n        msg.sender.transfer(taskCollection[msg.sender][campaign_indx].currentBudget);            \n        taskCollection[msg.sender][campaign_indx].currentBudget = 0;\n        return _campaign_owner_account_balance[msg.sender];\n    }\n    \n    \n\n    function helper_selectTask(address _address, string memory _url) internal view returns(uint256, bool) {\n        uint indx = 0;\n        bool found = false;\n        for(uint256 i=0; i<taskCollection[_address].length; i++) {\n            string memory url = taskCollection[_address][i].url;\n            if(keccak256(bytes(url))  == keccak256(bytes(_url))){\n                indx = i;\n                found = true;\n            }\n        }\n        return (indx, found);\n    }\n\n    function forwardRewards(address _userAddr, address _publisherAddr, string memory _url) public payable onlyOwner() returns(uint256, uint256)  {\n        (uint256 campaign_indx, ) = helper_selectTask(_publisherAddr, _url);\n        require(taskCollection[_publisherAddr][campaign_indx].isActive && _campaign_owner_account_balance[_publisherAddr] > taskCollection[_publisherAddr][campaign_indx].taskReward && taskCollection[_publisherAddr][campaign_indx].taskReward <= taskCollection[_publisherAddr][campaign_indx].currentBudget, \"not enough balance\");\n        taskCollection[_publisherAddr][campaign_indx].currentBudget = taskCollection[_publisherAddr][campaign_indx].currentBudget.sub(taskCollection[_publisherAddr][campaign_indx].taskReward);\n        _campaign_owner_account_balance[_publisherAddr] = _campaign_owner_account_balance[_publisherAddr].sub(taskCollection[_publisherAddr][campaign_indx].taskReward);\n        _user_account_balance[_userAddr] = _user_account_balance[_userAddr].add(taskCollection[_publisherAddr][campaign_indx].taskReward);\n        \n        if(_campaign_owner_account_balance[_publisherAddr] <= taskCollection[_publisherAddr][campaign_indx].taskReward) {\n          taskCollection[_publisherAddr][campaign_indx].isActive = false;\n        }        \n        return (_campaign_owner_account_balance[_publisherAddr], _user_account_balance[_userAddr]);\n        \n    }\n\n}",
  "sourcePath": "/home/lain/Desktop/crowdclick-client/contracts/CrowdclickEscrow.sol",
  "compiler": {
    "name": "solc",
    "version": "0.5.0+commit.1d4f565a.Emscripten.clang"
  },
  "schemaVersion": "3.2.4",
  "updatedAt": "2020-09-12T07:39:38.237Z",
  "networkType": "ethereum",
  "devdoc": {
    "methods": {
      "isOwner()": {
        "details": "Returns true if the caller is the current owner."
      },
      "owner()": {
        "details": "Returns the address of the current owner."
      },
      "renounceOwnership()": {
        "details": "Leaves the contract without owner. It will not be possible to call `onlyOwner` functions anymore. Can only be called by the current owner.     * NOTE: Renouncing ownership will leave the contract without an owner, thereby removing any functionality that is only available to the owner."
      },
      "transferOwnership(address)": {
        "details": "Transfers ownership of the contract to a new account (`newOwner`). Can only be called by the current owner."
      }
    }
  },
  "userdoc": {
    "methods": {}
  }
}